{
  "_format": "hh-sol-artifact-1",
  "contractName": "Domains",
  "sourceName": "contracts/Domains.sol",
  "abi": [
    {
      "inputs": [
        {
          "internalType": "string",
          "name": "_tld",
          "type": "string"
        }
      ],
      "stateMutability": "payable",
      "type": "constructor"
    },
    {
      "inputs": [],
      "name": "AlreadyRegistered",
      "type": "error"
    },
    {
      "inputs": [
        {
          "internalType": "string",
          "name": "name",
          "type": "string"
        }
      ],
      "name": "InvalidName",
      "type": "error"
    },
    {
      "inputs": [],
      "name": "Unauthorized",
      "type": "error"
    },
    {
      "anonymous": false,
      "inputs": [
        {
          "indexed": true,
          "internalType": "address",
          "name": "owner",
          "type": "address"
        },
        {
          "indexed": true,
          "internalType": "address",
          "name": "approved",
          "type": "address"
        },
        {
          "indexed": true,
          "internalType": "uint256",
          "name": "tokenId",
          "type": "uint256"
        }
      ],
      "name": "Approval",
      "type": "event"
    },
    {
      "anonymous": false,
      "inputs": [
        {
          "indexed": true,
          "internalType": "address",
          "name": "owner",
          "type": "address"
        },
        {
          "indexed": true,
          "internalType": "address",
          "name": "operator",
          "type": "address"
        },
        {
          "indexed": false,
          "internalType": "bool",
          "name": "approved",
          "type": "bool"
        }
      ],
      "name": "ApprovalForAll",
      "type": "event"
    },
    {
      "anonymous": false,
      "inputs": [
        {
          "indexed": true,
          "internalType": "address",
          "name": "from",
          "type": "address"
        },
        {
          "indexed": true,
          "internalType": "address",
          "name": "to",
          "type": "address"
        },
        {
          "indexed": true,
          "internalType": "uint256",
          "name": "tokenId",
          "type": "uint256"
        }
      ],
      "name": "Transfer",
      "type": "event"
    },
    {
      "inputs": [
        {
          "internalType": "address",
          "name": "to",
          "type": "address"
        },
        {
          "internalType": "uint256",
          "name": "tokenId",
          "type": "uint256"
        }
      ],
      "name": "approve",
      "outputs": [],
      "stateMutability": "nonpayable",
      "type": "function"
    },
    {
      "inputs": [
        {
          "internalType": "address",
          "name": "owner",
          "type": "address"
        }
      ],
      "name": "balanceOf",
      "outputs": [
        {
          "internalType": "uint256",
          "name": "",
          "type": "uint256"
        }
      ],
      "stateMutability": "view",
      "type": "function"
    },
    {
      "inputs": [
        {
          "internalType": "string",
          "name": "",
          "type": "string"
        }
      ],
      "name": "domains",
      "outputs": [
        {
          "internalType": "address",
          "name": "",
          "type": "address"
        }
      ],
      "stateMutability": "view",
      "type": "function"
    },
    {
      "inputs": [
        {
          "internalType": "string",
          "name": "name",
          "type": "string"
        }
      ],
      "name": "getAddress",
      "outputs": [
        {
          "internalType": "address",
          "name": "",
          "type": "address"
        }
      ],
      "stateMutability": "view",
      "type": "function"
    },
    {
      "inputs": [],
      "name": "getAllNames",
      "outputs": [
        {
          "internalType": "string[]",
          "name": "",
          "type": "string[]"
        }
      ],
      "stateMutability": "view",
      "type": "function"
    },
    {
      "inputs": [
        {
          "internalType": "uint256",
          "name": "tokenId",
          "type": "uint256"
        }
      ],
      "name": "getApproved",
      "outputs": [
        {
          "internalType": "address",
          "name": "",
          "type": "address"
        }
      ],
      "stateMutability": "view",
      "type": "function"
    },
    {
      "inputs": [
        {
          "internalType": "string",
          "name": "name",
          "type": "string"
        }
      ],
      "name": "getRecord",
      "outputs": [
        {
          "internalType": "string",
          "name": "",
          "type": "string"
        }
      ],
      "stateMutability": "view",
      "type": "function"
    },
    {
      "inputs": [
        {
          "internalType": "address",
          "name": "owner",
          "type": "address"
        },
        {
          "internalType": "address",
          "name": "operator",
          "type": "address"
        }
      ],
      "name": "isApprovedForAll",
      "outputs": [
        {
          "internalType": "bool",
          "name": "",
          "type": "bool"
        }
      ],
      "stateMutability": "view",
      "type": "function"
    },
    {
      "inputs": [],
      "name": "isOwner",
      "outputs": [
        {
          "internalType": "bool",
          "name": "",
          "type": "bool"
        }
      ],
      "stateMutability": "view",
      "type": "function"
    },
    {
      "inputs": [],
      "name": "name",
      "outputs": [
        {
          "internalType": "string",
          "name": "",
          "type": "string"
        }
      ],
      "stateMutability": "view",
      "type": "function"
    },
    {
      "inputs": [
        {
          "internalType": "uint256",
          "name": "",
          "type": "uint256"
        }
      ],
      "name": "names",
      "outputs": [
        {
          "internalType": "string",
          "name": "",
          "type": "string"
        }
      ],
      "stateMutability": "view",
      "type": "function"
    },
    {
      "inputs": [],
      "name": "owner",
      "outputs": [
        {
          "internalType": "address payable",
          "name": "",
          "type": "address"
        }
      ],
      "stateMutability": "view",
      "type": "function"
    },
    {
      "inputs": [
        {
          "internalType": "uint256",
          "name": "tokenId",
          "type": "uint256"
        }
      ],
      "name": "ownerOf",
      "outputs": [
        {
          "internalType": "address",
          "name": "",
          "type": "address"
        }
      ],
      "stateMutability": "view",
      "type": "function"
    },
    {
      "inputs": [
        {
          "internalType": "string",
          "name": "name",
          "type": "string"
        }
      ],
      "name": "price",
      "outputs": [
        {
          "internalType": "uint256",
          "name": "",
          "type": "uint256"
        }
      ],
      "stateMutability": "pure",
      "type": "function"
    },
    {
      "inputs": [
        {
          "internalType": "string",
          "name": "",
          "type": "string"
        }
      ],
      "name": "records",
      "outputs": [
        {
          "internalType": "string",
          "name": "",
          "type": "string"
        }
      ],
      "stateMutability": "view",
      "type": "function"
    },
    {
      "inputs": [
        {
          "internalType": "string",
          "name": "name",
          "type": "string"
        }
      ],
      "name": "register",
      "outputs": [],
      "stateMutability": "payable",
      "type": "function"
    },
    {
      "inputs": [
        {
          "internalType": "address",
          "name": "from",
          "type": "address"
        },
        {
          "internalType": "address",
          "name": "to",
          "type": "address"
        },
        {
          "internalType": "uint256",
          "name": "tokenId",
          "type": "uint256"
        }
      ],
      "name": "safeTransferFrom",
      "outputs": [],
      "stateMutability": "nonpayable",
      "type": "function"
    },
    {
      "inputs": [
        {
          "internalType": "address",
          "name": "from",
          "type": "address"
        },
        {
          "internalType": "address",
          "name": "to",
          "type": "address"
        },
        {
          "internalType": "uint256",
          "name": "tokenId",
          "type": "uint256"
        },
        {
          "internalType": "bytes",
          "name": "data",
          "type": "bytes"
        }
      ],
      "name": "safeTransferFrom",
      "outputs": [],
      "stateMutability": "nonpayable",
      "type": "function"
    },
    {
      "inputs": [
        {
          "internalType": "address",
          "name": "operator",
          "type": "address"
        },
        {
          "internalType": "bool",
          "name": "approved",
          "type": "bool"
        }
      ],
      "name": "setApprovalForAll",
      "outputs": [],
      "stateMutability": "nonpayable",
      "type": "function"
    },
    {
      "inputs": [
        {
          "internalType": "string",
          "name": "name",
          "type": "string"
        },
        {
          "internalType": "string",
          "name": "record",
          "type": "string"
        }
      ],
      "name": "setRecord",
      "outputs": [],
      "stateMutability": "nonpayable",
      "type": "function"
    },
    {
      "inputs": [
        {
          "internalType": "bytes4",
          "name": "interfaceId",
          "type": "bytes4"
        }
      ],
      "name": "supportsInterface",
      "outputs": [
        {
          "internalType": "bool",
          "name": "",
          "type": "bool"
        }
      ],
      "stateMutability": "view",
      "type": "function"
    },
    {
      "inputs": [],
      "name": "symbol",
      "outputs": [
        {
          "internalType": "string",
          "name": "",
          "type": "string"
        }
      ],
      "stateMutability": "view",
      "type": "function"
    },
    {
      "inputs": [],
      "name": "tld",
      "outputs": [
        {
          "internalType": "string",
          "name": "",
          "type": "string"
        }
      ],
      "stateMutability": "view",
      "type": "function"
    },
    {
      "inputs": [
        {
          "internalType": "uint256",
          "name": "tokenId",
          "type": "uint256"
        }
      ],
      "name": "tokenURI",
      "outputs": [
        {
          "internalType": "string",
          "name": "",
          "type": "string"
        }
      ],
      "stateMutability": "view",
      "type": "function"
    },
    {
      "inputs": [
        {
          "internalType": "address",
          "name": "from",
          "type": "address"
        },
        {
          "internalType": "address",
          "name": "to",
          "type": "address"
        },
        {
          "internalType": "uint256",
          "name": "tokenId",
          "type": "uint256"
        }
      ],
      "name": "transferFrom",
      "outputs": [],
      "stateMutability": "nonpayable",
      "type": "function"
    },
    {
      "inputs": [
        {
          "internalType": "string",
          "name": "name",
          "type": "string"
        }
      ],
      "name": "valid",
      "outputs": [
        {
          "internalType": "bool",
          "name": "",
          "type": "bool"
        }
      ],
      "stateMutability": "pure",
      "type": "function"
    },
    {
      "inputs": [],
      "name": "withdraw",
      "outputs": [],
      "stateMutability": "nonpayable",
      "type": "function"
    }
  ],
  "bytecode": "0x6080604052604051806108a0016040528061086b81526020016200568461086b9139600990816200003191906200051f565b506040518060400160405280600d81526020017f3c2f746578743e3c2f7376673e00000000000000000000000000000000000000815250600a90816200007891906200051f565b5060405162005eef38038062005eef83398181016040528101906200009e91906200076a565b6040518060400160405280601381526020017f4f6a6973616e204e616d652053657276696365000000000000000000000000008152506040518060400160405280600381526020017f4f4e53000000000000000000000000000000000000000000000000000000000081525081600090816200011b91906200051f565b5080600190816200012d91906200051f565b50505033600e60006101000a81548173ffffffffffffffffffffffffffffffffffffffff021916908373ffffffffffffffffffffffffffffffffffffffff16021790555080600890816200018291906200051f565b50620001cf6040518060400160405280601881526020017f2573206e616d652073657276696365206465706c6f796564000000000000000081525082620001d660201b62001b1e1760201c565b5062000848565b620002788282604051602401620001ef9291906200080d565b6040516020818303038152906040527f4b5c4277000000000000000000000000000000000000000000000000000000007bffffffffffffffffffffffffffffffffffffffffffffffffffffffff19166020820180517bffffffffffffffffffffffffffffffffffffffffffffffffffffffff83818316178352505050506200027c60201b60201c565b5050565b60008151905060006a636f6e736f6c652e6c6f679050602083016000808483855afa5050505050565b600081519050919050565b7f4e487b7100000000000000000000000000000000000000000000000000000000600052604160045260246000fd5b7f4e487b7100000000000000000000000000000000000000000000000000000000600052602260045260246000fd5b600060028204905060018216806200032757607f821691505b6020821081036200033d576200033c620002df565b5b50919050565b60008190508160005260206000209050919050565b60006020601f8301049050919050565b600082821b905092915050565b600060088302620003a77fffffffffffffffffffffffffffffffffffffffffffffffffffffffffffffffff8262000368565b620003b3868362000368565b95508019841693508086168417925050509392505050565b6000819050919050565b6000819050919050565b600062000400620003fa620003f484620003cb565b620003d5565b620003cb565b9050919050565b6000819050919050565b6200041c83620003df565b620004346200042b8262000407565b84845462000375565b825550505050565b600090565b6200044b6200043c565b6200045881848462000411565b505050565b5b8181101562000480576200047460008262000441565b6001810190506200045e565b5050565b601f821115620004cf57620004998162000343565b620004a48462000358565b81016020851015620004b4578190505b620004cc620004c38562000358565b8301826200045d565b50505b505050565b600082821c905092915050565b6000620004f460001984600802620004d4565b1980831691505092915050565b60006200050f8383620004e1565b9150826002028217905092915050565b6200052a82620002a5565b67ffffffffffffffff811115620005465762000545620002b0565b5b6200055282546200030e565b6200055f82828562000484565b600060209050601f83116001811462000597576000841562000582578287015190505b6200058e858262000501565b865550620005fe565b601f198416620005a78662000343565b60005b82811015620005d157848901518255600182019150602085019450602081019050620005aa565b86831015620005f15784890151620005ed601f891682620004e1565b8355505b6001600288020188555050505b505050505050565b6000604051905090565b600080fd5b600080fd5b600080fd5b600080fd5b6000601f19601f8301169050919050565b620006408262000624565b810181811067ffffffffffffffff82111715620006625762000661620002b0565b5b80604052505050565b60006200067762000606565b905062000685828262000635565b919050565b600067ffffffffffffffff821115620006a857620006a7620002b0565b5b620006b38262000624565b9050602081019050919050565b60005b83811015620006e0578082015181840152602081019050620006c3565b60008484015250505050565b600062000703620006fd846200068a565b6200066b565b9050828152602081018484840111156200072257620007216200061f565b5b6200072f848285620006c0565b509392505050565b600082601f8301126200074f576200074e6200061a565b5b815162000761848260208601620006ec565b91505092915050565b60006020828403121562000783576200078262000610565b5b600082015167ffffffffffffffff811115620007a457620007a362000615565b5b620007b28482850162000737565b91505092915050565b600082825260208201905092915050565b6000620007d982620002a5565b620007e58185620007bb565b9350620007f7818560208601620006c0565b620008028162000624565b840191505092915050565b60006040820190508181036000830152620008298185620007cc565b905081810360208301526200083f8184620007cc565b90509392505050565b614e2c80620008586000396000f3fe60806040526004361061019c5760003560e01c806370a08231116100ec578063bf40fac11161008a578063e985e9c511610064578063e985e9c514610624578063f2c298be14610661578063fb825e5f1461067d578063fe2c6198146106a85761019c565b8063bf40fac114610581578063c1880a98146105be578063c87b56dd146105e75761019c565b806395d89b41116100c657806395d89b41146104c75780639791c097146104f2578063a22cb4651461052f578063b88d4fde146105585761019c565b806370a08231146104345780638da5cb5b146104715780638f32d59b1461049c5761019c565b8063264492351161015957806342842e0e1161013357806342842e0e146103545780634622ab031461037d578063541e771d146103ba5780636352211e146103f75761019c565b806326449235146102d55780632d551432146103125780633ccfd60b1461033d5761019c565b806301ffc9a7146101a157806306fdde03146101de578063081812fc14610209578063095ea7b31461024657806311dd88451461026f57806323b872dd146102ac575b600080fd5b3480156101ad57600080fd5b506101c860048036038101906101c3919061315c565b6106e5565b6040516101d591906131a4565b60405180910390f35b3480156101ea57600080fd5b506101f36107c7565b604051610200919061324f565b60405180910390f35b34801561021557600080fd5b50610230600480360381019061022b91906132a7565b610859565b60405161023d9190613315565b60405180910390f35b34801561025257600080fd5b5061026d6004803603810190610268919061335c565b61089f565b005b34801561027b57600080fd5b5061029660048036038101906102919190613401565b6109b6565b6040516102a3919061324f565b60405180910390f35b3480156102b857600080fd5b506102d360048036038101906102ce919061344e565b610a69565b005b3480156102e157600080fd5b506102fc60048036038101906102f791906135d1565b610ac9565b6040516103099190613315565b60405180910390f35b34801561031e57600080fd5b50610327610b12565b604051610334919061324f565b60405180910390f35b34801561034957600080fd5b50610352610ba0565b005b34801561036057600080fd5b5061037b6004803603810190610376919061344e565b610c66565b005b34801561038957600080fd5b506103a4600480360381019061039f91906132a7565b610c86565b6040516103b1919061324f565b60405180910390f35b3480156103c657600080fd5b506103e160048036038101906103dc91906135d1565b610d26565b6040516103ee919061324f565b60405180910390f35b34801561040357600080fd5b5061041e600480360381019061041991906132a7565b610ddc565b60405161042b9190613315565b60405180910390f35b34801561044057600080fd5b5061045b6004803603810190610456919061361a565b610e62565b6040516104689190613656565b60405180910390f35b34801561047d57600080fd5b50610486610f19565b6040516104939190613692565b60405180910390f35b3480156104a857600080fd5b506104b1610f3f565b6040516104be91906131a4565b60405180910390f35b3480156104d357600080fd5b506104dc610f97565b6040516104e9919061324f565b60405180910390f35b3480156104fe57600080fd5b5061051960048036038101906105149190613401565b611029565b60405161052691906131a4565b60405180910390f35b34801561053b57600080fd5b50610556600480360381019061055191906136d9565b6110dd565b005b34801561056457600080fd5b5061057f600480360381019061057a91906137ba565b6110f3565b005b34801561058d57600080fd5b506105a860048036038101906105a39190613401565b611155565b6040516105b59190613315565b60405180910390f35b3480156105ca57600080fd5b506105e560048036038101906105e0919061383d565b6111a0565b005b3480156105f357600080fd5b5061060e600480360381019061060991906132a7565b61127b565b60405161061b919061324f565b60405180910390f35b34801561063057600080fd5b5061064b600480360381019061064691906138be565b61138d565b60405161065891906131a4565b60405180910390f35b61067b60048036038101906106769190613401565b611421565b005b34801561068957600080fd5b5061069261189f565b60405161069f9190613a0a565b60405180910390f35b3480156106b457600080fd5b506106cf60048036038101906106ca9190613401565b611a7d565b6040516106dc9190613656565b60405180910390f35b60007f80ac58cd000000000000000000000000000000000000000000000000000000007bffffffffffffffffffffffffffffffffffffffffffffffffffffffff1916827bffffffffffffffffffffffffffffffffffffffffffffffffffffffff191614806107b057507f5b5e139f000000000000000000000000000000000000000000000000000000007bffffffffffffffffffffffffffffffffffffffffffffffffffffffff1916827bffffffffffffffffffffffffffffffffffffffffffffffffffffffff1916145b806107c057506107bf82611bba565b5b9050919050565b6060600080546107d690613a5b565b80601f016020809104026020016040519081016040528092919081815260200182805461080290613a5b565b801561084f5780601f106108245761010080835404028352916020019161084f565b820191906000526020600020905b81548152906001019060200180831161083257829003601f168201915b5050505050905090565b600061086482611c24565b6004600083815260200190815260200160002060009054906101000a900473ffffffffffffffffffffffffffffffffffffffff169050919050565b60006108aa82610ddc565b90508073ffffffffffffffffffffffffffffffffffffffff168373ffffffffffffffffffffffffffffffffffffffff160361091a576040517f08c379a000000000000000000000000000000000000000000000000000000000815260040161091190613afe565b60405180910390fd5b8073ffffffffffffffffffffffffffffffffffffffff16610939611c6f565b73ffffffffffffffffffffffffffffffffffffffff161480610968575061096781610962611c6f565b61138d565b5b6109a7576040517f08c379a000000000000000000000000000000000000000000000000000000000815260040161099e90613b90565b60405180910390fd5b6109b18383611c77565b505050565b6060600c83836040516109ca929190613be0565b908152602001604051809103902080546109e390613a5b565b80601f0160208091040260200160405190810160405280929190818152602001828054610a0f90613a5b565b8015610a5c5780601f10610a3157610100808354040283529160200191610a5c565b820191906000526020600020905b815481529060010190602001808311610a3f57829003601f168201915b5050505050905092915050565b610a7a610a74611c6f565b82611d30565b610ab9576040517f08c379a0000000000000000000000000000000000000000000000000000000008152600401610ab090613c6b565b60405180910390fd5b610ac4838383611dc5565b505050565b600b818051602081018201805184825260208301602085012081835280955050505050506000915054906101000a900473ffffffffffffffffffffffffffffffffffffffff1681565b60088054610b1f90613a5b565b80601f0160208091040260200160405190810160405280929190818152602001828054610b4b90613a5b565b8015610b985780601f10610b6d57610100808354040283529160200191610b98565b820191906000526020600020905b815481529060010190602001808311610b7b57829003601f168201915b505050505081565b610ba8610f3f565b610bb157600080fd5b600047905060003373ffffffffffffffffffffffffffffffffffffffff1682604051610bdc90613cbc565b60006040518083038185875af1925050503d8060008114610c19576040519150601f19603f3d011682016040523d82523d6000602084013e610c1e565b606091505b5050905080610c62576040517f08c379a0000000000000000000000000000000000000000000000000000000008152600401610c5990613d1d565b60405180910390fd5b5050565b610c81838383604051806020016040528060008152506110f3565b505050565b600d6020528060005260406000206000915090508054610ca590613a5b565b80601f0160208091040260200160405190810160405280929190818152602001828054610cd190613a5b565b8015610d1e5780601f10610cf357610100808354040283529160200191610d1e565b820191906000526020600020905b815481529060010190602001808311610d0157829003601f168201915b505050505081565b600c818051602081018201805184825260208301602085012081835280955050505050506000915090508054610d5b90613a5b565b80601f0160208091040260200160405190810160405280929190818152602001828054610d8790613a5b565b8015610dd45780601f10610da957610100808354040283529160200191610dd4565b820191906000526020600020905b815481529060010190602001808311610db757829003601f168201915b505050505081565b600080610de8836120be565b9050600073ffffffffffffffffffffffffffffffffffffffff168173ffffffffffffffffffffffffffffffffffffffff1603610e59576040517f08c379a0000000000000000000000000000000000000000000000000000000008152600401610e5090613d89565b60405180910390fd5b80915050919050565b60008073ffffffffffffffffffffffffffffffffffffffff168273ffffffffffffffffffffffffffffffffffffffff1603610ed2576040517f08c379a0000000000000000000000000000000000000000000000000000000008152600401610ec990613e1b565b60405180910390fd5b600360008373ffffffffffffffffffffffffffffffffffffffff1673ffffffffffffffffffffffffffffffffffffffff168152602001908152602001600020549050919050565b600e60009054906101000a900473ffffffffffffffffffffffffffffffffffffffff1681565b6000600e60009054906101000a900473ffffffffffffffffffffffffffffffffffffffff1673ffffffffffffffffffffffffffffffffffffffff163373ffffffffffffffffffffffffffffffffffffffff1614905090565b606060018054610fa690613a5b565b80601f0160208091040260200160405190810160405280929190818152602001828054610fd290613a5b565b801561101f5780601f10610ff45761010080835404028352916020019161101f565b820191906000526020600020905b81548152906001019060200180831161100257829003601f168201915b5050505050905090565b6000600361107a84848080601f016020809104026020016040519081016040528093929190818152602001838380828437600081840152601f19601f820116905080830192505050505050506120fb565b101580156110d55750600a6110d284848080601f016020809104026020016040519081016040528093929190818152602001838380828437600081840152601f19601f820116905080830192505050505050506120fb565b11155b905092915050565b6110ef6110e8611c6f565b83836122b0565b5050565b6111046110fe611c6f565b83611d30565b611143576040517f08c379a000000000000000000000000000000000000000000000000000000000815260040161113a90613c6b565b60405180910390fd5b61114f8484848461241c565b50505050565b6000600b8383604051611169929190613be0565b908152602001604051809103902060009054906101000a900473ffffffffffffffffffffffffffffffffffffffff16905092915050565b600b84846040516111b2929190613be0565b908152602001604051809103902060009054906101000a900473ffffffffffffffffffffffffffffffffffffffff1673ffffffffffffffffffffffffffffffffffffffff163373ffffffffffffffffffffffffffffffffffffffff1614611245576040517f82b4290000000000000000000000000000000000000000000000000000000000815260040160405180910390fd5b8181600c8686604051611259929190613be0565b90815260200160405180910390209182611274929190613ff2565b5050505050565b606061128682611c24565b60006006600084815260200190815260200160002080546112a690613a5b565b80601f01602080910402602001604051908101604052809291908181526020018280546112d290613a5b565b801561131f5780601f106112f45761010080835404028352916020019161131f565b820191906000526020600020905b81548152906001019060200180831161130257829003601f168201915b505050505090506000611330612478565b90506000815103611345578192505050611388565b60008251111561137a5780826040516020016113629291906140f3565b60405160208183030381529060405292505050611388565b6113838461248f565b925050505b919050565b6000600560008473ffffffffffffffffffffffffffffffffffffffff1673ffffffffffffffffffffffffffffffffffffffff16815260200190815260200160002060008373ffffffffffffffffffffffffffffffffffffffff1673ffffffffffffffffffffffffffffffffffffffff16815260200190815260200160002060009054906101000a900460ff16905092915050565b600073ffffffffffffffffffffffffffffffffffffffff16600b838360405161144b929190613be0565b908152602001604051809103902060009054906101000a900473ffffffffffffffffffffffffffffffffffffffff1673ffffffffffffffffffffffffffffffffffffffff16146114c7576040517f3a81d6fc00000000000000000000000000000000000000000000000000000000815260040160405180910390fd5b6114d18282611029565b6115145781816040517f7f19f48d00000000000000000000000000000000000000000000000000000000815260040161150b929190614144565b60405180910390fd5b60006115208383611a7d565b905080341015611565576040517f08c379a000000000000000000000000000000000000000000000000000000000815260040161155c906141b4565b60405180910390fd5b60008383600860405160200161157d939291906142a3565b60405160208183030381529060405290506000600982600a6040516020016115a7939291906142d4565b604051602081830303815290604052905060006115c460076124f7565b9050600061161587878080601f016020809104026020016040519081016040528093929190818152602001838380828437600081840152601f19601f820116905080830192505050505050506120fb565b9050600061162282612505565b9050611716604051806060016040528060318152602001614d4d6031913989898080601f016020809104026020016040519081016040528093929190818152602001838380828437600081840152601f19601f820116905080830192505050505050506008805461169290613a5b565b80601f01602080910402602001604051908101604052809291908181526020018280546116be90613a5b565b801561170b5780601f106116e05761010080835404028352916020019161170b565b820191906000526020600020905b8154815290600101906020018083116116ee57829003601f168201915b5050505050866125d3565b600061174c8661172587612675565b8460405160200161173893929190614481565b604051602081830303815290604052612675565b9050600081604051602001611761919061452a565b6040516020818303038152906040529050611793604051806060016040528060398152602001614d146039913961280c565b6117d26040518060400160405280600e81526020017f46696e616c20746f6b656e55524900000000000000000000000000000000000081525082611b1e565b6117f3604051806060016040528060398152602001614d7e6039913961280c565b6117fd33866128a5565b61180785826128c3565b33600b8b8b60405161181a929190613be0565b908152602001604051809103902060006101000a81548173ffffffffffffffffffffffffffffffffffffffff021916908373ffffffffffffffffffffffffffffffffffffffff1602179055508989600d60008881526020019081526020016000209182611888929190613ff2565b506118936007612930565b50505050505050505050565b60606118df6040518060400160405280601f81526020017f47657474696e6720616c6c206e616d65732066726f6d20636f6e74726163740081525061280c565b60006118eb60076124f7565b67ffffffffffffffff811115611904576119036134a6565b5b60405190808252806020026020018201604052801561193757816020015b60608152602001906001900390816119225790505b50905060005b61194760076124f7565b811015611a7557600d6000828152602001908152602001600020805461196c90613a5b565b80601f016020809104026020016040519081016040528092919081815260200182805461199890613a5b565b80156119e55780601f106119ba576101008083540402835291602001916119e5565b820191906000526020600020905b8154815290600101906020018083116119c857829003601f168201915b50505050508282815181106119fd576119fc61454c565b5b6020026020010181905250611a626040518060400160405280601781526020017f4e616d6520666f7220746f6b656e20256420697320257300000000000000000081525082848481518110611a5557611a5461454c565b5b6020026020010151612946565b8080611a6d906145aa565b91505061193d565b508091505090565b600080611acd84848080601f016020809104026020016040519081016040528093929190818152602001838380828437600081840152601f19601f820116905080830192505050505050506120fb565b905060008111611adc57600080fd5b60038103611af4576611c37937e08000915050611b18565b60048103611b0c57660aa87bee538000915050611b18565b66038d7ea4c680009150505b92915050565b611bb68282604051602401611b349291906145f2565b6040516020818303038152906040527f4b5c4277000000000000000000000000000000000000000000000000000000007bffffffffffffffffffffffffffffffffffffffffffffffffffffffff19166020820180517bffffffffffffffffffffffffffffffffffffffffffffffffffffffff83818316178352505050506129e5565b5050565b60007f01ffc9a7000000000000000000000000000000000000000000000000000000007bffffffffffffffffffffffffffffffffffffffffffffffffffffffff1916827bffffffffffffffffffffffffffffffffffffffffffffffffffffffff1916149050919050565b611c2d81612a0e565b611c6c576040517f08c379a0000000000000000000000000000000000000000000000000000000008152600401611c6390613d89565b60405180910390fd5b50565b600033905090565b816004600083815260200190815260200160002060006101000a81548173ffffffffffffffffffffffffffffffffffffffff021916908373ffffffffffffffffffffffffffffffffffffffff160217905550808273ffffffffffffffffffffffffffffffffffffffff16611cea83610ddc565b73ffffffffffffffffffffffffffffffffffffffff167f8c5be1e5ebec7d5bd14f71427d1e84f3dd0314c0f7b2291e5b200ac8c7c3b92560405160405180910390a45050565b600080611d3c83610ddc565b90508073ffffffffffffffffffffffffffffffffffffffff168473ffffffffffffffffffffffffffffffffffffffff161480611d7e5750611d7d818561138d565b5b80611dbc57508373ffffffffffffffffffffffffffffffffffffffff16611da484610859565b73ffffffffffffffffffffffffffffffffffffffff16145b91505092915050565b8273ffffffffffffffffffffffffffffffffffffffff16611de582610ddc565b73ffffffffffffffffffffffffffffffffffffffff1614611e3b576040517f08c379a0000000000000000000000000000000000000000000000000000000008152600401611e329061469b565b60405180910390fd5b600073ffffffffffffffffffffffffffffffffffffffff168273ffffffffffffffffffffffffffffffffffffffff1603611eaa576040517f08c379a0000000000000000000000000000000000000000000000000000000008152600401611ea19061472d565b60405180910390fd5b611eb78383836001612a4f565b8273ffffffffffffffffffffffffffffffffffffffff16611ed782610ddc565b73ffffffffffffffffffffffffffffffffffffffff1614611f2d576040517f08c379a0000000000000000000000000000000000000000000000000000000008152600401611f249061469b565b60405180910390fd5b6004600082815260200190815260200160002060006101000a81549073ffffffffffffffffffffffffffffffffffffffff02191690556001600360008573ffffffffffffffffffffffffffffffffffffffff1673ffffffffffffffffffffffffffffffffffffffff168152602001908152602001600020600082825403925050819055506001600360008473ffffffffffffffffffffffffffffffffffffffff1673ffffffffffffffffffffffffffffffffffffffff16815260200190815260200160002060008282540192505081905550816002600083815260200190815260200160002060006101000a81548173ffffffffffffffffffffffffffffffffffffffff021916908373ffffffffffffffffffffffffffffffffffffffff160217905550808273ffffffffffffffffffffffffffffffffffffffff168473ffffffffffffffffffffffffffffffffffffffff167fddf252ad1be2c89b69c2b068fc378daa952ba7f163c4a11628f55a4df523b3ef60405160405180910390a46120b98383836001612b75565b505050565b60006002600083815260200190815260200160002060009054906101000a900473ffffffffffffffffffffffffffffffffffffffff169050919050565b60008060008084519050600092505b808210156122a55760008583815181106121275761212661454c565b5b602001015160f81c60f81b9050608060f81b817effffffffffffffffffffffffffffffffffffffffffffffffffffffffffffff191610156121765760018361216f919061474d565b9250612291565b60e060f81b817effffffffffffffffffffffffffffffffffffffffffffffffffffffffffffff191610156121b8576002836121b1919061474d565b9250612290565b60f060f81b817effffffffffffffffffffffffffffffffffffffffffffffffffffffffffffff191610156121fa576003836121f3919061474d565b925061228f565b60f8801b817effffffffffffffffffffffffffffffffffffffffffffffffffffffffffffff1916101561223b57600483612234919061474d565b925061228e565b60fc60f81b817effffffffffffffffffffffffffffffffffffffffffffffffffffffffffffff1916101561227d57600583612276919061474d565b925061228d565b60068361228a919061474d565b92505b5b5b5b5b50828061229d906145aa565b93505061210a565b829350505050919050565b8173ffffffffffffffffffffffffffffffffffffffff168373ffffffffffffffffffffffffffffffffffffffff160361231e576040517f08c379a0000000000000000000000000000000000000000000000000000000008152600401612315906147cd565b60405180910390fd5b80600560008573ffffffffffffffffffffffffffffffffffffffff1673ffffffffffffffffffffffffffffffffffffffff16815260200190815260200160002060008473ffffffffffffffffffffffffffffffffffffffff1673ffffffffffffffffffffffffffffffffffffffff16815260200190815260200160002060006101000a81548160ff0219169083151502179055508173ffffffffffffffffffffffffffffffffffffffff168373ffffffffffffffffffffffffffffffffffffffff167f17307eab39ab6107e8899845ad3d59bd9653f200f220920489ca2b5937696c318360405161240f91906131a4565b60405180910390a3505050565b612427848484611dc5565b61243384848484612b7b565b612472576040517f08c379a00000000000000000000000000000000000000000000000000000000081526004016124699061485f565b60405180910390fd5b50505050565b606060405180602001604052806000815250905090565b606061249a82611c24565b60006124a4612478565b905060008151116124c457604051806020016040528060008152506124ef565b806124ce84612505565b6040516020016124df9291906140f3565b6040516020818303038152906040525b915050919050565b600081600001549050919050565b60606000600161251484612d02565b01905060008167ffffffffffffffff811115612533576125326134a6565b5b6040519080825280601f01601f1916602001820160405280156125655781602001600182028036833780820191505090505b509050600082602001820190505b6001156125c8578080600190039150507f3031323334353637383961626364656600000000000000000000000000000000600a86061a8153600a85816125bc576125bb61487f565b5b04945060008503612573575b819350505050919050565b61266f848484846040516024016125ed94939291906148ae565b6040516020818303038152906040527f8eafb02b000000000000000000000000000000000000000000000000000000007bffffffffffffffffffffffffffffffffffffffffffffffffffffffff19166020820180517bffffffffffffffffffffffffffffffffffffffffffffffffffffffff83818316178352505050506129e5565b50505050565b60606000825190506000810361269d5760405180602001604052806000815250915050612807565b600060036002836126ae919061474d565b6126b89190614908565b60046126c49190614939565b905060006020826126d5919061474d565b67ffffffffffffffff8111156126ee576126ed6134a6565b5b6040519080825280601f01601f1916602001820160405280156127205781602001600182028036833780820191505090505b5090506000604051806060016040528060408152602001614db7604091399050600181016020830160005b868110156127c45760038101905062ffffff818a015116603f8160121c168401518060081b905060ff603f83600c1c1686015116810190508060081b905060ff603f8360061c1686015116810190508060081b905060ff603f831686015116810190508060e01b9050808452600484019350505061274b565b5060038606600181146127de57600281146127ee576127f9565b613d3d60f01b60028303526127f9565b603d60f81b60018303525b508484525050819450505050505b919050565b6128a281604051602401612820919061324f565b6040516020818303038152906040527f41304fac000000000000000000000000000000000000000000000000000000007bffffffffffffffffffffffffffffffffffffffffffffffffffffffff19166020820180517bffffffffffffffffffffffffffffffffffffffffffffffffffffffff83818316178352505050506129e5565b50565b6128bf828260405180602001604052806000815250612e55565b5050565b6128cc82612a0e565b61290b576040517f08c379a0000000000000000000000000000000000000000000000000000000008152600401612902906149ed565b60405180910390fd5b8060066000848152602001908152602001600020908161292b9190614a0d565b505050565b6001816000016000828254019250508190555050565b6129e083838360405160240161295e93929190614adf565b6040516020818303038152906040527f5970e089000000000000000000000000000000000000000000000000000000007bffffffffffffffffffffffffffffffffffffffffffffffffffffffff19166020820180517bffffffffffffffffffffffffffffffffffffffffffffffffffffffff83818316178352505050506129e5565b505050565b60008151905060006a636f6e736f6c652e6c6f679050602083016000808483855afa5050505050565b60008073ffffffffffffffffffffffffffffffffffffffff16612a30836120be565b73ffffffffffffffffffffffffffffffffffffffff1614159050919050565b6001811115612b6f57600073ffffffffffffffffffffffffffffffffffffffff168473ffffffffffffffffffffffffffffffffffffffff1614612ae35780600360008673ffffffffffffffffffffffffffffffffffffffff1673ffffffffffffffffffffffffffffffffffffffff1681526020019081526020016000206000828254612adb9190614b24565b925050819055505b600073ffffffffffffffffffffffffffffffffffffffff168373ffffffffffffffffffffffffffffffffffffffff1614612b6e5780600360008573ffffffffffffffffffffffffffffffffffffffff1673ffffffffffffffffffffffffffffffffffffffff1681526020019081526020016000206000828254612b66919061474d565b925050819055505b5b50505050565b50505050565b6000612b9c8473ffffffffffffffffffffffffffffffffffffffff16612eb0565b15612cf5578373ffffffffffffffffffffffffffffffffffffffff1663150b7a02612bc5611c6f565b8786866040518563ffffffff1660e01b8152600401612be79493929190614bad565b6020604051808303816000875af1925050508015612c2357506040513d601f19601f82011682018060405250810190612c209190614c0e565b60015b612ca5573d8060008114612c53576040519150601f19603f3d011682016040523d82523d6000602084013e612c58565b606091505b506000815103612c9d576040517f08c379a0000000000000000000000000000000000000000000000000000000008152600401612c949061485f565b60405180910390fd5b805181602001fd5b63150b7a0260e01b7bffffffffffffffffffffffffffffffffffffffffffffffffffffffff1916817bffffffffffffffffffffffffffffffffffffffffffffffffffffffff191614915050612cfa565b600190505b949350505050565b600080600090507a184f03e93ff9f4daa797ed6e38ed64bf6a1f0100000000000000008310612d60577a184f03e93ff9f4daa797ed6e38ed64bf6a1f0100000000000000008381612d5657612d5561487f565b5b0492506040810190505b6d04ee2d6d415b85acef81000000008310612d9d576d04ee2d6d415b85acef81000000008381612d9357612d9261487f565b5b0492506020810190505b662386f26fc100008310612dcc57662386f26fc100008381612dc257612dc161487f565b5b0492506010810190505b6305f5e1008310612df5576305f5e1008381612deb57612dea61487f565b5b0492506008810190505b6127108310612e1a576127108381612e1057612e0f61487f565b5b0492506004810190505b60648310612e3d5760648381612e3357612e3261487f565b5b0492506002810190505b600a8310612e4c576001810190505b80915050919050565b612e5f8383612ed3565b612e6c6000848484612b7b565b612eab576040517f08c379a0000000000000000000000000000000000000000000000000000000008152600401612ea29061485f565b60405180910390fd5b505050565b6000808273ffffffffffffffffffffffffffffffffffffffff163b119050919050565b600073ffffffffffffffffffffffffffffffffffffffff168273ffffffffffffffffffffffffffffffffffffffff1603612f42576040517f08c379a0000000000000000000000000000000000000000000000000000000008152600401612f3990614c87565b60405180910390fd5b612f4b81612a0e565b15612f8b576040517f08c379a0000000000000000000000000000000000000000000000000000000008152600401612f8290614cf3565b60405180910390fd5b612f99600083836001612a4f565b612fa281612a0e565b15612fe2576040517f08c379a0000000000000000000000000000000000000000000000000000000008152600401612fd990614cf3565b60405180910390fd5b6001600360008473ffffffffffffffffffffffffffffffffffffffff1673ffffffffffffffffffffffffffffffffffffffff16815260200190815260200160002060008282540192505081905550816002600083815260200190815260200160002060006101000a81548173ffffffffffffffffffffffffffffffffffffffff021916908373ffffffffffffffffffffffffffffffffffffffff160217905550808273ffffffffffffffffffffffffffffffffffffffff16600073ffffffffffffffffffffffffffffffffffffffff167fddf252ad1be2c89b69c2b068fc378daa952ba7f163c4a11628f55a4df523b3ef60405160405180910390a46130ec600083836001612b75565b5050565b6000604051905090565b600080fd5b600080fd5b60007fffffffff0000000000000000000000000000000000000000000000000000000082169050919050565b61313981613104565b811461314457600080fd5b50565b60008135905061315681613130565b92915050565b600060208284031215613172576131716130fa565b5b600061318084828501613147565b91505092915050565b60008115159050919050565b61319e81613189565b82525050565b60006020820190506131b96000830184613195565b92915050565b600081519050919050565b600082825260208201905092915050565b60005b838110156131f95780820151818401526020810190506131de565b60008484015250505050565b6000601f19601f8301169050919050565b6000613221826131bf565b61322b81856131ca565b935061323b8185602086016131db565b61324481613205565b840191505092915050565b600060208201905081810360008301526132698184613216565b905092915050565b6000819050919050565b61328481613271565b811461328f57600080fd5b50565b6000813590506132a18161327b565b92915050565b6000602082840312156132bd576132bc6130fa565b5b60006132cb84828501613292565b91505092915050565b600073ffffffffffffffffffffffffffffffffffffffff82169050919050565b60006132ff826132d4565b9050919050565b61330f816132f4565b82525050565b600060208201905061332a6000830184613306565b92915050565b613339816132f4565b811461334457600080fd5b50565b60008135905061335681613330565b92915050565b60008060408385031215613373576133726130fa565b5b600061338185828601613347565b925050602061339285828601613292565b9150509250929050565b600080fd5b600080fd5b600080fd5b60008083601f8401126133c1576133c061339c565b5b8235905067ffffffffffffffff8111156133de576133dd6133a1565b5b6020830191508360018202830111156133fa576133f96133a6565b5b9250929050565b60008060208385031215613418576134176130fa565b5b600083013567ffffffffffffffff811115613436576134356130ff565b5b613442858286016133ab565b92509250509250929050565b600080600060608486031215613467576134666130fa565b5b600061347586828701613347565b935050602061348686828701613347565b925050604061349786828701613292565b9150509250925092565b600080fd5b7f4e487b7100000000000000000000000000000000000000000000000000000000600052604160045260246000fd5b6134de82613205565b810181811067ffffffffffffffff821117156134fd576134fc6134a6565b5b80604052505050565b60006135106130f0565b905061351c82826134d5565b919050565b600067ffffffffffffffff82111561353c5761353b6134a6565b5b61354582613205565b9050602081019050919050565b82818337600083830152505050565b600061357461356f84613521565b613506565b9050828152602081018484840111156135905761358f6134a1565b5b61359b848285613552565b509392505050565b600082601f8301126135b8576135b761339c565b5b81356135c8848260208601613561565b91505092915050565b6000602082840312156135e7576135e66130fa565b5b600082013567ffffffffffffffff811115613605576136046130ff565b5b613611848285016135a3565b91505092915050565b6000602082840312156136305761362f6130fa565b5b600061363e84828501613347565b91505092915050565b61365081613271565b82525050565b600060208201905061366b6000830184613647565b92915050565b600061367c826132d4565b9050919050565b61368c81613671565b82525050565b60006020820190506136a76000830184613683565b92915050565b6136b681613189565b81146136c157600080fd5b50565b6000813590506136d3816136ad565b92915050565b600080604083850312156136f0576136ef6130fa565b5b60006136fe85828601613347565b925050602061370f858286016136c4565b9150509250929050565b600067ffffffffffffffff821115613734576137336134a6565b5b61373d82613205565b9050602081019050919050565b600061375d61375884613719565b613506565b905082815260208101848484011115613779576137786134a1565b5b613784848285613552565b509392505050565b600082601f8301126137a1576137a061339c565b5b81356137b184826020860161374a565b91505092915050565b600080600080608085870312156137d4576137d36130fa565b5b60006137e287828801613347565b94505060206137f387828801613347565b935050604061380487828801613292565b925050606085013567ffffffffffffffff811115613825576138246130ff565b5b6138318782880161378c565b91505092959194509250565b60008060008060408587031215613857576138566130fa565b5b600085013567ffffffffffffffff811115613875576138746130ff565b5b613881878288016133ab565b9450945050602085013567ffffffffffffffff8111156138a4576138a36130ff565b5b6138b0878288016133ab565b925092505092959194509250565b600080604083850312156138d5576138d46130fa565b5b60006138e385828601613347565b92505060206138f485828601613347565b9150509250929050565b600081519050919050565b600082825260208201905092915050565b6000819050602082019050919050565b600082825260208201905092915050565b6000613946826131bf565b613950818561392a565b93506139608185602086016131db565b61396981613205565b840191505092915050565b6000613980838361393b565b905092915050565b6000602082019050919050565b60006139a0826138fe565b6139aa8185613909565b9350836020820285016139bc8561391a565b8060005b858110156139f857848403895281516139d98582613974565b94506139e483613988565b925060208a019950506001810190506139c0565b50829750879550505050505092915050565b60006020820190508181036000830152613a248184613995565b905092915050565b7f4e487b7100000000000000000000000000000000000000000000000000000000600052602260045260246000fd5b60006002820490506001821680613a7357607f821691505b602082108103613a8657613a85613a2c565b5b50919050565b7f4552433732313a20617070726f76616c20746f2063757272656e74206f776e6560008201527f7200000000000000000000000000000000000000000000000000000000000000602082015250565b6000613ae86021836131ca565b9150613af382613a8c565b604082019050919050565b60006020820190508181036000830152613b1781613adb565b9050919050565b7f4552433732313a20617070726f76652063616c6c6572206973206e6f7420746f60008201527f6b656e206f776e6572206f7220617070726f76656420666f7220616c6c000000602082015250565b6000613b7a603d836131ca565b9150613b8582613b1e565b604082019050919050565b60006020820190508181036000830152613ba981613b6d565b9050919050565b600081905092915050565b6000613bc78385613bb0565b9350613bd4838584613552565b82840190509392505050565b6000613bed828486613bbb565b91508190509392505050565b7f4552433732313a2063616c6c6572206973206e6f7420746f6b656e206f776e6560008201527f72206f7220617070726f76656400000000000000000000000000000000000000602082015250565b6000613c55602d836131ca565b9150613c6082613bf9565b604082019050919050565b60006020820190508181036000830152613c8481613c48565b9050919050565b600081905092915050565b50565b6000613ca6600083613c8b565b9150613cb182613c96565b600082019050919050565b6000613cc782613c99565b9150819050919050565b7f4661696c656420746f207769746864726177204d617469630000000000000000600082015250565b6000613d076018836131ca565b9150613d1282613cd1565b602082019050919050565b60006020820190508181036000830152613d3681613cfa565b9050919050565b7f4552433732313a20696e76616c696420746f6b656e2049440000000000000000600082015250565b6000613d736018836131ca565b9150613d7e82613d3d565b602082019050919050565b60006020820190508181036000830152613da281613d66565b9050919050565b7f4552433732313a2061646472657373207a65726f206973206e6f74206120766160008201527f6c6964206f776e65720000000000000000000000000000000000000000000000602082015250565b6000613e056029836131ca565b9150613e1082613da9565b604082019050919050565b60006020820190508181036000830152613e3481613df8565b9050919050565b600082905092915050565b60008190508160005260206000209050919050565b60006020601f8301049050919050565b600082821b905092915050565b600060088302613ea87fffffffffffffffffffffffffffffffffffffffffffffffffffffffffffffffff82613e6b565b613eb28683613e6b565b95508019841693508086168417925050509392505050565b6000819050919050565b6000613eef613eea613ee584613271565b613eca565b613271565b9050919050565b6000819050919050565b613f0983613ed4565b613f1d613f1582613ef6565b848454613e78565b825550505050565b600090565b613f32613f25565b613f3d818484613f00565b505050565b5b81811015613f6157613f56600082613f2a565b600181019050613f43565b5050565b601f821115613fa657613f7781613e46565b613f8084613e5b565b81016020851015613f8f578190505b613fa3613f9b85613e5b565b830182613f42565b50505b505050565b600082821c905092915050565b6000613fc960001984600802613fab565b1980831691505092915050565b6000613fe28383613fb8565b9150826002028217905092915050565b613ffc8383613e3b565b67ffffffffffffffff811115614015576140146134a6565b5b61401f8254613a5b565b61402a828285613f65565b6000601f8311600181146140595760008415614047578287013590505b6140518582613fd6565b8655506140b9565b601f19841661406786613e46565b60005b8281101561408f5784890135825560018201915060208501945060208101905061406a565b868310156140ac57848901356140a8601f891682613fb8565b8355505b6001600288020188555050505b50505050505050565b60006140cd826131bf565b6140d78185613bb0565b93506140e78185602086016131db565b80840191505092915050565b60006140ff82856140c2565b915061410b82846140c2565b91508190509392505050565b600061412383856131ca565b9350614130838584613552565b61413983613205565b840190509392505050565b6000602082019050818103600083015261415f818486614117565b90509392505050565b7f4e6f7420656e6f756768204d6174696320706169640000000000000000000000600082015250565b600061419e6015836131ca565b91506141a982614168565b602082019050919050565b600060208201905081810360008301526141cd81614191565b9050919050565b7f2e00000000000000000000000000000000000000000000000000000000000000600082015250565b600061420a600183613bb0565b9150614215826141d4565b600182019050919050565b6000815461422d81613a5b565b6142378186613bb0565b9450600182166000811461425257600181146142675761429a565b60ff198316865281151582028601935061429a565b61427085613e46565b60005b8381101561429257815481890152600182019150602081019050614273565b838801955050505b50505092915050565b60006142b0828587613bbb565b91506142bb826141fd565b91506142c78284614220565b9150819050949350505050565b60006142e08286614220565b91506142ec82856140c2565b91506142f88284614220565b9150819050949350505050565b7f7b226e616d65223a202200000000000000000000000000000000000000000000600082015250565b600061433b600a83613bb0565b915061434682614305565b600a82019050919050565b7f222c20226465736372697074696f6e223a20224120646f6d61696e206f6e207460008201527f6865206f6a6973616e206e616d652073657276696365222c2022696d6167652260208201527f3a2022646174613a696d6167652f7376672b786d6c3b6261736536342c000000604082015250565b60006143d3605d83613bb0565b91506143de82614351565b605d82019050919050565b7f222c226c656e677468223a220000000000000000000000000000000000000000600082015250565b600061441f600c83613bb0565b915061442a826143e9565b600c82019050919050565b7f227d000000000000000000000000000000000000000000000000000000000000600082015250565b600061446b600283613bb0565b915061447682614435565b600282019050919050565b600061448c8261432e565b915061449882866140c2565b91506144a3826143c6565b91506144af82856140c2565b91506144ba82614412565b91506144c682846140c2565b91506144d18261445e565b9150819050949350505050565b7f646174613a6170706c69636174696f6e2f6a736f6e3b6261736536342c000000600082015250565b6000614514601d83613bb0565b915061451f826144de565b601d82019050919050565b600061453582614507565b915061454182846140c2565b915081905092915050565b7f4e487b7100000000000000000000000000000000000000000000000000000000600052603260045260246000fd5b7f4e487b7100000000000000000000000000000000000000000000000000000000600052601160045260246000fd5b60006145b582613271565b91507fffffffffffffffffffffffffffffffffffffffffffffffffffffffffffffffff82036145e7576145e661457b565b5b600182019050919050565b6000604082019050818103600083015261460c8185613216565b905081810360208301526146208184613216565b90509392505050565b7f4552433732313a207472616e736665722066726f6d20696e636f72726563742060008201527f6f776e6572000000000000000000000000000000000000000000000000000000602082015250565b60006146856025836131ca565b915061469082614629565b604082019050919050565b600060208201905081810360008301526146b481614678565b9050919050565b7f4552433732313a207472616e7366657220746f20746865207a65726f2061646460008201527f7265737300000000000000000000000000000000000000000000000000000000602082015250565b60006147176024836131ca565b9150614722826146bb565b604082019050919050565b600060208201905081810360008301526147468161470a565b9050919050565b600061475882613271565b915061476383613271565b925082820190508082111561477b5761477a61457b565b5b92915050565b7f4552433732313a20617070726f766520746f2063616c6c657200000000000000600082015250565b60006147b76019836131ca565b91506147c282614781565b602082019050919050565b600060208201905081810360008301526147e6816147aa565b9050919050565b7f4552433732313a207472616e7366657220746f206e6f6e20455243373231526560008201527f63656976657220696d706c656d656e7465720000000000000000000000000000602082015250565b60006148496032836131ca565b9150614854826147ed565b604082019050919050565b600060208201905081810360008301526148788161483c565b9050919050565b7f4e487b7100000000000000000000000000000000000000000000000000000000600052601260045260246000fd5b600060808201905081810360008301526148c88187613216565b905081810360208301526148dc8186613216565b905081810360408301526148f08185613216565b90506148ff6060830184613647565b95945050505050565b600061491382613271565b915061491e83613271565b92508261492e5761492d61487f565b5b828204905092915050565b600061494482613271565b915061494f83613271565b925082820261495d81613271565b915082820484148315176149745761497361457b565b5b5092915050565b7f45524337323155524953746f726167653a2055524920736574206f66206e6f6e60008201527f6578697374656e7420746f6b656e000000000000000000000000000000000000602082015250565b60006149d7602e836131ca565b91506149e28261497b565b604082019050919050565b60006020820190508181036000830152614a06816149ca565b9050919050565b614a16826131bf565b67ffffffffffffffff811115614a2f57614a2e6134a6565b5b614a398254613a5b565b614a44828285613f65565b600060209050601f831160018114614a775760008415614a65578287015190505b614a6f8582613fd6565b865550614ad7565b601f198416614a8586613e46565b60005b82811015614aad57848901518255600182019150602085019450602081019050614a88565b86831015614aca5784890151614ac6601f891682613fb8565b8355505b6001600288020188555050505b505050505050565b60006060820190508181036000830152614af98186613216565b9050614b086020830185613647565b8181036040830152614b1a8184613216565b9050949350505050565b6000614b2f82613271565b9150614b3a83613271565b9250828203905081811115614b5257614b5161457b565b5b92915050565b600081519050919050565b600082825260208201905092915050565b6000614b7f82614b58565b614b898185614b63565b9350614b998185602086016131db565b614ba281613205565b840191505092915050565b6000608082019050614bc26000830187613306565b614bcf6020830186613306565b614bdc6040830185613647565b8181036060830152614bee8184614b74565b905095945050505050565b600081519050614c0881613130565b92915050565b600060208284031215614c2457614c236130fa565b5b6000614c3284828501614bf9565b91505092915050565b7f4552433732313a206d696e7420746f20746865207a65726f2061646472657373600082015250565b6000614c716020836131ca565b9150614c7c82614c3b565b602082019050919050565b60006020820190508181036000830152614ca081614c64565b9050919050565b7f4552433732313a20746f6b656e20616c7265616479206d696e74656400000000600082015250565b6000614cdd601c836131ca565b9150614ce882614ca7565b602082019050919050565b60006020820190508181036000830152614d0c81614cd0565b905091905056fe0a2d2d2d2d2d2d2d2d2d2d2d2d2d2d2d2d2d2d2d2d2d2d2d2d2d2d2d2d2d2d2d2d2d2d2d2d2d2d2d2d2d2d2d2d2d2d2d2d2d2d2d2d2d2d2d2d5265676973746572696e672025732e2573206f6e2074686520636f6e7472616374207769746820746f6b656e49442025642d2d2d2d2d2d2d2d2d2d2d2d2d2d2d2d2d2d2d2d2d2d2d2d2d2d2d2d2d2d2d2d2d2d2d2d2d2d2d2d2d2d2d2d2d2d2d2d2d2d2d2d2d2d2d2d0a4142434445464748494a4b4c4d4e4f505152535455565758595a6162636465666768696a6b6c6d6e6f707172737475767778797a303132333435363738392b2fa2646970667358221220b579e821bb1ae92f14190b4a3b685b7c309537a369458f133ec4983ac2158b9c64736f6c634300081100333c73766720786d6c6e733d22687474703a2f2f7777772e77332e6f72672f323030302f737667222077696474683d2232373022206865696768743d22323730222066696c6c3d226e6f6e65223e3c706174682066696c6c3d2275726c282342292220643d224d302030683237307632373048307a222f3e3c646566733e3c66696c7465722069643d22412220636f6c6f722d696e746572706f6c6174696f6e2d66696c746572733d2273524742222066696c746572556e6974733d227573657253706163654f6e55736522206865696768743d22323730222077696474683d22323730223e3c666544726f70536861646f772064783d2230222064793d22312220737464446576696174696f6e3d22322220666c6f6f642d6f7061636974793d222e323235222077696474683d223230302522206865696768743d2232303025222f3e3c2f66696c7465723e3c2f646566733e3c7061746820643d224d37322e3836332034322e393439632d2e3636382d2e3338372d312e3432362d2e35392d322e3139372d2e3539732d312e3532392e3230342d322e3139372e35396c2d31302e30383120362e3033322d362e383520332e3933342d31302e30383120362e303332632d2e3636382e3338372d312e3432362e35392d322e3139372e3539732d312e3532392d2e3230342d322e3139372d2e35396c2d382e3031332d342e37323161342e353220342e35322030203020312d312e3538392d312e363136632d2e3338342d2e3636352d2e3539342d312e3431382d2e3630382d322e313837762d392e3331632d2e3031332d2e3737352e3138352d312e3533382e3537322d322e32303861342e323520342e323520302030203120312e3632352d312e3539356c372e3838342d342e3539632e3636382d2e33383720312e3432362d2e353920322e3139372d2e353973312e3532392e32303420322e3139372e35396c372e38383420342e353961342e353220342e353220302030203120312e35383920312e363136632e3338342e3636352e35393420312e3431382e36303820322e31383776362e3033326c362e38352d342e303635762d362e303332632e3031332d2e3737352d2e3138352d312e3533382d2e3537322d322e32303861342e323520342e32352030203020302d312e3632352d312e3539354c34312e3435362032342e3539632d2e3636382d2e3338372d312e3432362d2e35392d322e3139372d2e3539732d312e3532392e3230342d322e3139372e35396c2d31342e38363420382e36353561342e323520342e32352030203020302d312e36323520312e353935632d2e3338372e36372d2e35383520312e3433342d2e35373220322e3230387631372e343431632d2e3031332e3737352e31383520312e3533382e35373220322e32303861342e323520342e323520302030203020312e36323520312e3539356c31342e38363420382e363535632e3636382e33383720312e3432362e353920322e3139372e353973312e3532392d2e32303420322e3139372d2e35396c31302e3038312d352e39303120362e38352d342e3036352031302e3038312d352e393031632e3636382d2e33383720312e3432362d2e353920322e3139372d2e353973312e3532392e32303420322e3139372e35396c372e38383420342e353961342e353220342e353220302030203120312e35383920312e363136632e3338342e3636352e35393420312e3431382e36303820322e31383776392e333131632e3031332e3737352d2e31383520312e3533382d2e35373220322e32303861342e323520342e32352030203020312d312e36323520312e3539356c2d372e38383420342e373231632d2e3636382e3338372d312e3432362e35392d322e3139372e3539732d312e3532392d2e3230342d322e3139372d2e35396c2d372e3838342d342e353961342e353220342e35322030203020312d312e3538392d312e363136632d2e3338352d2e3636352d2e3539342d312e3431382d2e3630382d322e313837762d362e3033326c2d362e383520342e30363576362e303332632d2e3031332e3737352e31383520312e3533382e35373220322e32303861342e323520342e323520302030203020312e36323520312e3539356c31342e38363420382e363535632e3636382e33383720312e3432362e353920322e3139372e353973312e3532392d2e32303420322e3139372d2e35396c31342e3836342d382e363535632e3635372d2e33393420312e3230342d2e393520312e3538392d312e363136732e3539342d312e3431382e3630392d322e3138375635352e353338632e3031332d2e3737352d2e3138352d312e3533382d2e3537322d322e32303861342e323520342e32352030203020302d312e3632352d312e3539356c2d31342e3939332d382e3738367a222066696c6c3d2223666666222f3e3c646566733e3c6c696e6561724772616469656e742069643d2242222078313d2230222079313d2230222078323d22323730222079323d2232373022206772616469656e74556e6974733d227573657253706163654f6e557365223e3c73746f702073746f702d636f6c6f723d2223636235656565222f3e3c73746f70206f66667365743d2231222073746f702d636f6c6f723d2223306364376534222073746f702d6f7061636974793d222e3939222f3e3c2f6c696e6561724772616469656e743e3c2f646566733e3c7465787420783d2233322e352220793d223233312220666f6e742d73697a653d223237222066696c6c3d2223666666222066696c7465723d2275726c282341292220666f6e742d66616d696c793d22506c7573204a616b617274612053616e732c44656a6156752053616e732c4e6f746f20436f6c6f7220456d6f6a692c4170706c6520436f6c6f7220456d6f6a692c73616e732d73657269662220666f6e742d7765696768743d22626f6c64223e",
  "linkReferences": {},
  "deployedLinkReferences": {}
}